{
  "contractName": "DayManToken",
  "abi": [
    {
      "inputs": [
        {
          "internalType": "address payable",
          "name": "_nightManTokenAddress",
          "type": "address"
        }
      ],
      "stateMutability": "nonpayable",
      "type": "constructor"
    },
    {
      "anonymous": false,
      "inputs": [
        {
          "indexed": true,
          "internalType": "address",
          "name": "owner",
          "type": "address"
        },
        {
          "indexed": true,
          "internalType": "address",
          "name": "spender",
          "type": "address"
        },
        {
          "indexed": false,
          "internalType": "uint256",
          "name": "value",
          "type": "uint256"
        }
      ],
      "name": "Approval",
      "type": "event"
    },
    {
      "anonymous": false,
      "inputs": [
        {
          "indexed": true,
          "internalType": "address",
          "name": "from",
          "type": "address"
        },
        {
          "indexed": true,
          "internalType": "address",
          "name": "to",
          "type": "address"
        },
        {
          "indexed": false,
          "internalType": "uint256",
          "name": "value",
          "type": "uint256"
        }
      ],
      "name": "Transfer",
      "type": "event"
    },
    {
      "stateMutability": "payable",
      "type": "fallback"
    },
    {
      "inputs": [],
      "name": "_totalBurned",
      "outputs": [
        {
          "internalType": "uint256",
          "name": "",
          "type": "uint256"
        }
      ],
      "stateMutability": "view",
      "type": "function"
    },
    {
      "inputs": [
        {
          "internalType": "address",
          "name": "owner",
          "type": "address"
        },
        {
          "internalType": "address",
          "name": "spender",
          "type": "address"
        }
      ],
      "name": "allowance",
      "outputs": [
        {
          "internalType": "uint256",
          "name": "",
          "type": "uint256"
        }
      ],
      "stateMutability": "view",
      "type": "function"
    },
    {
      "inputs": [
        {
          "internalType": "address",
          "name": "spender",
          "type": "address"
        },
        {
          "internalType": "uint256",
          "name": "amount",
          "type": "uint256"
        }
      ],
      "name": "approve",
      "outputs": [
        {
          "internalType": "bool",
          "name": "",
          "type": "bool"
        }
      ],
      "stateMutability": "nonpayable",
      "type": "function"
    },
    {
      "inputs": [
        {
          "internalType": "address",
          "name": "account",
          "type": "address"
        }
      ],
      "name": "balanceOf",
      "outputs": [
        {
          "internalType": "uint256",
          "name": "",
          "type": "uint256"
        }
      ],
      "stateMutability": "view",
      "type": "function"
    },
    {
      "inputs": [],
      "name": "decimals",
      "outputs": [
        {
          "internalType": "uint8",
          "name": "",
          "type": "uint8"
        }
      ],
      "stateMutability": "view",
      "type": "function"
    },
    {
      "inputs": [
        {
          "internalType": "address",
          "name": "spender",
          "type": "address"
        },
        {
          "internalType": "uint256",
          "name": "subtractedValue",
          "type": "uint256"
        }
      ],
      "name": "decreaseAllowance",
      "outputs": [
        {
          "internalType": "bool",
          "name": "",
          "type": "bool"
        }
      ],
      "stateMutability": "nonpayable",
      "type": "function"
    },
    {
      "inputs": [
        {
          "internalType": "address",
          "name": "spender",
          "type": "address"
        },
        {
          "internalType": "uint256",
          "name": "addedValue",
          "type": "uint256"
        }
      ],
      "name": "increaseAllowance",
      "outputs": [
        {
          "internalType": "bool",
          "name": "",
          "type": "bool"
        }
      ],
      "stateMutability": "nonpayable",
      "type": "function"
    },
    {
      "inputs": [],
      "name": "name",
      "outputs": [
        {
          "internalType": "string",
          "name": "",
          "type": "string"
        }
      ],
      "stateMutability": "view",
      "type": "function"
    },
    {
      "inputs": [],
      "name": "symbol",
      "outputs": [
        {
          "internalType": "string",
          "name": "",
          "type": "string"
        }
      ],
      "stateMutability": "view",
      "type": "function"
    },
    {
      "inputs": [],
      "name": "totalSupply",
      "outputs": [
        {
          "internalType": "uint256",
          "name": "",
          "type": "uint256"
        }
      ],
      "stateMutability": "view",
      "type": "function"
    },
    {
      "inputs": [
        {
          "internalType": "address",
          "name": "recipient",
          "type": "address"
        },
        {
          "internalType": "uint256",
          "name": "amount",
          "type": "uint256"
        }
      ],
      "name": "transfer",
      "outputs": [
        {
          "internalType": "bool",
          "name": "",
          "type": "bool"
        }
      ],
      "stateMutability": "nonpayable",
      "type": "function"
    },
    {
      "inputs": [
        {
          "internalType": "address",
          "name": "sender",
          "type": "address"
        },
        {
          "internalType": "address",
          "name": "recipient",
          "type": "address"
        },
        {
          "internalType": "uint256",
          "name": "amount",
          "type": "uint256"
        }
      ],
      "name": "transferFrom",
      "outputs": [
        {
          "internalType": "bool",
          "name": "",
          "type": "bool"
        }
      ],
      "stateMutability": "nonpayable",
      "type": "function"
    },
    {
      "stateMutability": "payable",
      "type": "receive"
    },
    {
      "inputs": [],
      "name": "totalBurned",
      "outputs": [
        {
          "internalType": "uint256",
          "name": "",
          "type": "uint256"
        }
      ],
      "stateMutability": "view",
      "type": "function"
    },
    {
      "inputs": [
        {
          "internalType": "uint256",
          "name": "valueSent",
          "type": "uint256"
        }
      ],
      "name": "tokensPurchased",
      "outputs": [
        {
          "internalType": "uint256",
          "name": "",
          "type": "uint256"
        }
      ],
      "stateMutability": "view",
      "type": "function"
    },
    {
      "inputs": [],
      "name": "purchaseTokens",
      "outputs": [],
      "stateMutability": "payable",
      "type": "function"
    },
    {
      "inputs": [
        {
          "internalType": "uint256",
          "name": "amount",
          "type": "uint256"
        }
      ],
      "name": "exchangeTokens",
      "outputs": [],
      "stateMutability": "nonpayable",
      "type": "function"
    }
  ],
  "bytecode": "0x6080604052620000146200016760201b60201c565b600a620000229190620002fc565b620f424062000032919062000439565b6007553480156200004257600080fd5b50604051620026cf380380620026cf833981810160405281019062000068919062000237565b6040518060400160405280600b81526020017f4461794d616e546f6b656e0000000000000000000000000000000000000000008152506040518060400160405280600481526020017f444d5458000000000000000000000000000000000000000000000000000000008152508160039080519060200190620000ec92919062000170565b5080600490805190602001906200010592919062000170565b50505080600560006101000a81548173ffffffffffffffffffffffffffffffffffffffff021916908373ffffffffffffffffffffffffffffffffffffffff16021790555060026007546200015a919062000269565b60068190555050620005d4565b60006012905090565b8280546200017e90620004e5565b90600052602060002090601f016020900481019282620001a25760008555620001ee565b82601f10620001bd57805160ff1916838001178555620001ee565b82800160010185558215620001ee579182015b82811115620001ed578251825591602001919060010190620001d0565b5b509050620001fd919062000201565b5090565b5b808211156200021c57600081600090555060010162000202565b5090565b6000815190506200023181620005ba565b92915050565b60006020828403121562000250576200024f620005a8565b5b6000620002608482850162000220565b91505092915050565b60006200027682620004ce565b91506200028383620004ce565b9250826200029657620002956200054a565b5b828204905092915050565b6000808291508390505b6001851115620002f357808604811115620002cb57620002ca6200051b565b5b6001851615620002db5780820291505b8081029050620002eb85620005ad565b9450620002ab565b94509492505050565b60006200030982620004ce565b91506200031683620004d8565b9250620003457fffffffffffffffffffffffffffffffffffffffffffffffffffffffffffffffff84846200034d565b905092915050565b6000826200035f576001905062000432565b816200036f576000905062000432565b81600181146200038857600281146200039357620003c9565b600191505062000432565b60ff841115620003a857620003a76200051b565b5b8360020a915084821115620003c257620003c16200051b565b5b5062000432565b5060208310610133831016604e8410600b8410161715620004035782820a905083811115620003fd57620003fc6200051b565b5b62000432565b620004128484846001620002a1565b925090508184048111156200042c576200042b6200051b565b5b81810290505b9392505050565b60006200044682620004ce565b91506200045383620004ce565b9250817fffffffffffffffffffffffffffffffffffffffffffffffffffffffffffffffff04831182151516156200048f576200048e6200051b565b5b828202905092915050565b6000620004a782620004ae565b9050919050565b600073ffffffffffffffffffffffffffffffffffffffff82169050919050565b6000819050919050565b600060ff82169050919050565b60006002820490506001821680620004fe57607f821691505b6020821081141562000515576200051462000579565b5b50919050565b7f4e487b7100000000000000000000000000000000000000000000000000000000600052601160045260246000fd5b7f4e487b7100000000000000000000000000000000000000000000000000000000600052601260045260246000fd5b7f4e487b7100000000000000000000000000000000000000000000000000000000600052602260045260246000fd5b600080fd5b60008160011c9050919050565b620005c5816200049a565b8114620005d157600080fd5b50565b6120eb80620005e46000396000f3fe6080604052600436106100f75760003560e01c8063404771261161008a578063a9059cbb11610059578063a9059cbb1461034d578063d89135cd1461038a578063dd62ed3e146103b5578063fd01bd4c146103f2576100fe565b8063404771261461027f57806370a08231146102a857806395d89b41146102e5578063a457c2d714610310576100fe565b80632d73649f116100c65780632d73649f146101d0578063313ce5671461020d5780633290ce29146102385780633950935114610242576100fe565b806306fdde0314610100578063095ea7b31461012b57806318160ddd1461016857806323b872dd14610193576100fe565b366100fe57005b005b34801561010c57600080fd5b5061011561041d565b6040516101229190611971565b60405180910390f35b34801561013757600080fd5b50610152600480360381019061014d91906116f8565b6104af565b60405161015f9190611956565b60405180910390f35b34801561017457600080fd5b5061017d6104cd565b60405161018a9190611ad3565b60405180910390f35b34801561019f57600080fd5b506101ba60048036038101906101b591906116a5565b6104d7565b6040516101c79190611956565b60405180910390f35b3480156101dc57600080fd5b506101f760048036038101906101f29190611738565b6105cf565b6040516102049190611ad3565b60405180910390f35b34801561021957600080fd5b506102226106aa565b60405161022f9190611aee565b60405180910390f35b6102406106b3565b005b34801561024e57600080fd5b50610269600480360381019061026491906116f8565b61099e565b6040516102769190611956565b60405180910390f35b34801561028b57600080fd5b506102a660048036038101906102a19190611738565b610a4a565b005b3480156102b457600080fd5b506102cf60048036038101906102ca9190611638565b610af5565b6040516102dc9190611ad3565b60405180910390f35b3480156102f157600080fd5b506102fa610b3d565b6040516103079190611971565b60405180910390f35b34801561031c57600080fd5b50610337600480360381019061033291906116f8565b610bcf565b6040516103449190611956565b60405180910390f35b34801561035957600080fd5b50610374600480360381019061036f91906116f8565b610cba565b6040516103819190611956565b60405180910390f35b34801561039657600080fd5b5061039f610cd8565b6040516103ac9190611ad3565b60405180910390f35b3480156103c157600080fd5b506103dc60048036038101906103d79190611665565b610ce2565b6040516103e99190611ad3565b60405180910390f35b3480156103fe57600080fd5b50610407610d69565b6040516104149190611ad3565b60405180910390f35b60606003805461042c90611cc2565b80601f016020809104026020016040519081016040528092919081815260200182805461045890611cc2565b80156104a55780601f1061047a576101008083540402835291602001916104a5565b820191906000526020600020905b81548152906001019060200180831161048857829003601f168201915b5050505050905090565b60006104c36104bc610d6f565b8484610d77565b6001905092915050565b6000600254905090565b60006104e4848484610f42565b6000600160008673ffffffffffffffffffffffffffffffffffffffff1673ffffffffffffffffffffffffffffffffffffffff168152602001908152602001600020600061052f610d6f565b73ffffffffffffffffffffffffffffffffffffffff1673ffffffffffffffffffffffffffffffffffffffff168152602001908152602001600020549050828110156105af576040517f08c379a00000000000000000000000000000000000000000000000000000000081526004016105a690611a13565b60405180910390fd5b6105c3856105bb610d6f565b858403610d77565b60019150509392505050565b60006103e8600560009054906101000a900473ffffffffffffffffffffffffffffffffffffffff1673ffffffffffffffffffffffffffffffffffffffff1663d89135cd6040518163ffffffff1660e01b815260040160206040518083038186803b15801561063c57600080fd5b505afa158015610650573d6000803e3d6000fd5b505050506040513d601f19601f820116820180604052508101906106749190611765565b6006546106819190611b25565b6007548461068f9190611bac565b6106999190611b7b565b6106a39190611bac565b9050919050565b60006012905090565b600034116106c057600080fd5b600754600560009054906101000a900473ffffffffffffffffffffffffffffffffffffffff1673ffffffffffffffffffffffffffffffffffffffff166318160ddd6040518163ffffffff1660e01b815260040160206040518083038186803b15801561072b57600080fd5b505afa15801561073f573d6000803e3d6000fd5b505050506040513d601f19601f820116820180604052508101906107639190611765565b61076b6104cd565b610774346105cf565b61077e9190611b25565b6107889190611b25565b11156109895761085633600560009054906101000a900473ffffffffffffffffffffffffffffffffffffffff1673ffffffffffffffffffffffffffffffffffffffff166318160ddd6040518163ffffffff1660e01b815260040160206040518083038186803b1580156107fa57600080fd5b505afa15801561080e573d6000803e3d6000fd5b505050506040513d601f19601f820116820180604052508101906108329190611765565b61083a6104cd565b6108449190611b25565b6007546108519190611c06565b611037565b3373ffffffffffffffffffffffffffffffffffffffff166108fc610879346105cf565b600560009054906101000a900473ffffffffffffffffffffffffffffffffffffffff1673ffffffffffffffffffffffffffffffffffffffff166318160ddd6040518163ffffffff1660e01b815260040160206040518083038186803b1580156108e157600080fd5b505afa1580156108f5573d6000803e3d6000fd5b505050506040513d601f19601f820116820180604052508101906109199190611765565b6109216104cd565b61092b9190611b25565b6007546109389190611c06565b346109439190611bac565b61094d9190611b7b565b346109589190611c06565b9081150290604051600060405180830381858888f19350505050158015610983573d6000803e3d6000fd5b5061099c565b61099b33610996346105cf565b611037565b5b565b6000610a406109ab610d6f565b8484600160006109b9610d6f565b73ffffffffffffffffffffffffffffffffffffffff1673ffffffffffffffffffffffffffffffffffffffff16815260200190815260200160002060008873ffffffffffffffffffffffffffffffffffffffff1673ffffffffffffffffffffffffffffffffffffffff16815260200190815260200160002054610a3b9190611b25565b610d77565b6001905092915050565b60008111610a5757600080fd5b80610a6133610af5565b11610a6b57600080fd5b610a753382611197565b8060066000828254610a879190611b25565b925050819055503373ffffffffffffffffffffffffffffffffffffffff166108fc82610ab16104cd565b47610abc9190611bac565b610ac69190611b7b565b9081150290604051600060405180830381858888f19350505050158015610af1573d6000803e3d6000fd5b5050565b60008060008373ffffffffffffffffffffffffffffffffffffffff1673ffffffffffffffffffffffffffffffffffffffff168152602001908152602001600020549050919050565b606060048054610b4c90611cc2565b80601f0160208091040260200160405190810160405280929190818152602001828054610b7890611cc2565b8015610bc55780601f10610b9a57610100808354040283529160200191610bc5565b820191906000526020600020905b815481529060010190602001808311610ba857829003601f168201915b5050505050905090565b60008060016000610bde610d6f565b73ffffffffffffffffffffffffffffffffffffffff1673ffffffffffffffffffffffffffffffffffffffff16815260200190815260200160002060008573ffffffffffffffffffffffffffffffffffffffff1673ffffffffffffffffffffffffffffffffffffffff16815260200190815260200160002054905082811015610c9b576040517f08c379a0000000000000000000000000000000000000000000000000000000008152600401610c9290611a93565b60405180910390fd5b610caf610ca6610d6f565b85858403610d77565b600191505092915050565b6000610cce610cc7610d6f565b8484610f42565b6001905092915050565b6000600654905090565b6000600160008473ffffffffffffffffffffffffffffffffffffffff1673ffffffffffffffffffffffffffffffffffffffff16815260200190815260200160002060008373ffffffffffffffffffffffffffffffffffffffff1673ffffffffffffffffffffffffffffffffffffffff16815260200190815260200160002054905092915050565b60065481565b600033905090565b600073ffffffffffffffffffffffffffffffffffffffff168373ffffffffffffffffffffffffffffffffffffffff161415610de7576040517f08c379a0000000000000000000000000000000000000000000000000000000008152600401610dde90611a73565b60405180910390fd5b600073ffffffffffffffffffffffffffffffffffffffff168273ffffffffffffffffffffffffffffffffffffffff161415610e57576040517f08c379a0000000000000000000000000000000000000000000000000000000008152600401610e4e906119d3565b60405180910390fd5b80600160008573ffffffffffffffffffffffffffffffffffffffff1673ffffffffffffffffffffffffffffffffffffffff16815260200190815260200160002060008473ffffffffffffffffffffffffffffffffffffffff1673ffffffffffffffffffffffffffffffffffffffff168152602001908152602001600020819055508173ffffffffffffffffffffffffffffffffffffffff168373ffffffffffffffffffffffffffffffffffffffff167f8c5be1e5ebec7d5bd14f71427d1e84f3dd0314c0f7b2291e5b200ac8c7c3b92583604051610f359190611ad3565b60405180910390a3505050565b610f5883606483610f539190611b7b565b611197565b606481610f659190611b7b565b60066000828254610f769190611b25565b92505081905550600560009054906101000a900473ffffffffffffffffffffffffffffffffffffffff1673ffffffffffffffffffffffffffffffffffffffff166108fc610fc16104cd565b606484610fce9190611b7b565b47610fd99190611bac565b610fe39190611b7b565b9081150290604051600060405180830381858888f1935050505015801561100e573d6000803e3d6000fd5b50611032838360648460636110239190611bac565b61102d9190611b7b565b61136e565b505050565b600073ffffffffffffffffffffffffffffffffffffffff168273ffffffffffffffffffffffffffffffffffffffff1614156110a7576040517f08c379a000000000000000000000000000000000000000000000000000000000815260040161109e90611ab3565b60405180910390fd5b6110b3600083836115ef565b80600260008282546110c59190611b25565b92505081905550806000808473ffffffffffffffffffffffffffffffffffffffff1673ffffffffffffffffffffffffffffffffffffffff168152602001908152602001600020600082825461111a9190611b25565b925050819055508173ffffffffffffffffffffffffffffffffffffffff16600073ffffffffffffffffffffffffffffffffffffffff167fddf252ad1be2c89b69c2b068fc378daa952ba7f163c4a11628f55a4df523b3ef8360405161117f9190611ad3565b60405180910390a3611193600083836115f4565b5050565b600073ffffffffffffffffffffffffffffffffffffffff168273ffffffffffffffffffffffffffffffffffffffff161415611207576040517f08c379a00000000000000000000000000000000000000000000000000000000081526004016111fe90611a33565b60405180910390fd5b611213826000836115ef565b60008060008473ffffffffffffffffffffffffffffffffffffffff1673ffffffffffffffffffffffffffffffffffffffff16815260200190815260200160002054905081811015611299576040517f08c379a0000000000000000000000000000000000000000000000000000000008152600401611290906119b3565b60405180910390fd5b8181036000808573ffffffffffffffffffffffffffffffffffffffff1673ffffffffffffffffffffffffffffffffffffffff1681526020019081526020016000208190555081600260008282546112f09190611c06565b92505081905550600073ffffffffffffffffffffffffffffffffffffffff168373ffffffffffffffffffffffffffffffffffffffff167fddf252ad1be2c89b69c2b068fc378daa952ba7f163c4a11628f55a4df523b3ef846040516113559190611ad3565b60405180910390a3611369836000846115f4565b505050565b600073ffffffffffffffffffffffffffffffffffffffff168373ffffffffffffffffffffffffffffffffffffffff1614156113de576040517f08c379a00000000000000000000000000000000000000000000000000000000081526004016113d590611a53565b60405180910390fd5b600073ffffffffffffffffffffffffffffffffffffffff168273ffffffffffffffffffffffffffffffffffffffff16141561144e576040517f08c379a000000000000000000000000000000000000000000000000000000000815260040161144590611993565b60405180910390fd5b6114598383836115ef565b60008060008573ffffffffffffffffffffffffffffffffffffffff1673ffffffffffffffffffffffffffffffffffffffff168152602001908152602001600020549050818110156114df576040517f08c379a00000000000000000000000000000000000000000000000000000000081526004016114d6906119f3565b60405180910390fd5b8181036000808673ffffffffffffffffffffffffffffffffffffffff1673ffffffffffffffffffffffffffffffffffffffff16815260200190815260200160002081905550816000808573ffffffffffffffffffffffffffffffffffffffff1673ffffffffffffffffffffffffffffffffffffffff16815260200190815260200160002060008282546115729190611b25565b925050819055508273ffffffffffffffffffffffffffffffffffffffff168473ffffffffffffffffffffffffffffffffffffffff167fddf252ad1be2c89b69c2b068fc378daa952ba7f163c4a11628f55a4df523b3ef846040516115d69190611ad3565b60405180910390a36115e98484846115f4565b50505050565b505050565b505050565b60008135905061160881612087565b92915050565b60008135905061161d8161209e565b92915050565b6000815190506116328161209e565b92915050565b60006020828403121561164e5761164d611d81565b5b600061165c848285016115f9565b91505092915050565b6000806040838503121561167c5761167b611d81565b5b600061168a858286016115f9565b925050602061169b858286016115f9565b9150509250929050565b6000806000606084860312156116be576116bd611d81565b5b60006116cc868287016115f9565b93505060206116dd868287016115f9565b92505060406116ee8682870161160e565b9150509250925092565b6000806040838503121561170f5761170e611d81565b5b600061171d858286016115f9565b925050602061172e8582860161160e565b9150509250929050565b60006020828403121561174e5761174d611d81565b5b600061175c8482850161160e565b91505092915050565b60006020828403121561177b5761177a611d81565b5b600061178984828501611623565b91505092915050565b61179b81611c4c565b82525050565b60006117ac82611b09565b6117b68185611b14565b93506117c6818560208601611c8f565b6117cf81611d86565b840191505092915050565b60006117e7602383611b14565b91506117f282611d97565b604082019050919050565b600061180a602283611b14565b915061181582611de6565b604082019050919050565b600061182d602283611b14565b915061183882611e35565b604082019050919050565b6000611850602683611b14565b915061185b82611e84565b604082019050919050565b6000611873602883611b14565b915061187e82611ed3565b604082019050919050565b6000611896602183611b14565b91506118a182611f22565b604082019050919050565b60006118b9602583611b14565b91506118c482611f71565b604082019050919050565b60006118dc602483611b14565b91506118e782611fc0565b604082019050919050565b60006118ff602583611b14565b915061190a8261200f565b604082019050919050565b6000611922601f83611b14565b915061192d8261205e565b602082019050919050565b61194181611c78565b82525050565b61195081611c82565b82525050565b600060208201905061196b6000830184611792565b92915050565b6000602082019050818103600083015261198b81846117a1565b905092915050565b600060208201905081810360008301526119ac816117da565b9050919050565b600060208201905081810360008301526119cc816117fd565b9050919050565b600060208201905081810360008301526119ec81611820565b9050919050565b60006020820190508181036000830152611a0c81611843565b9050919050565b60006020820190508181036000830152611a2c81611866565b9050919050565b60006020820190508181036000830152611a4c81611889565b9050919050565b60006020820190508181036000830152611a6c816118ac565b9050919050565b60006020820190508181036000830152611a8c816118cf565b9050919050565b60006020820190508181036000830152611aac816118f2565b9050919050565b60006020820190508181036000830152611acc81611915565b9050919050565b6000602082019050611ae86000830184611938565b92915050565b6000602082019050611b036000830184611947565b92915050565b600081519050919050565b600082825260208201905092915050565b6000611b3082611c78565b9150611b3b83611c78565b9250827fffffffffffffffffffffffffffffffffffffffffffffffffffffffffffffffff03821115611b7057611b6f611cf4565b5b828201905092915050565b6000611b8682611c78565b9150611b9183611c78565b925082611ba157611ba0611d23565b5b828204905092915050565b6000611bb782611c78565b9150611bc283611c78565b9250817fffffffffffffffffffffffffffffffffffffffffffffffffffffffffffffffff0483118215151615611bfb57611bfa611cf4565b5b828202905092915050565b6000611c1182611c78565b9150611c1c83611c78565b925082821015611c2f57611c2e611cf4565b5b828203905092915050565b6000611c4582611c58565b9050919050565b60008115159050919050565b600073ffffffffffffffffffffffffffffffffffffffff82169050919050565b6000819050919050565b600060ff82169050919050565b60005b83811015611cad578082015181840152602081019050611c92565b83811115611cbc576000848401525b50505050565b60006002820490506001821680611cda57607f821691505b60208210811415611cee57611ced611d52565b5b50919050565b7f4e487b7100000000000000000000000000000000000000000000000000000000600052601160045260246000fd5b7f4e487b7100000000000000000000000000000000000000000000000000000000600052601260045260246000fd5b7f4e487b7100000000000000000000000000000000000000000000000000000000600052602260045260246000fd5b600080fd5b6000601f19601f8301169050919050565b7f45524332303a207472616e7366657220746f20746865207a65726f206164647260008201527f6573730000000000000000000000000000000000000000000000000000000000602082015250565b7f45524332303a206275726e20616d6f756e7420657863656564732062616c616e60008201527f6365000000000000000000000000000000000000000000000000000000000000602082015250565b7f45524332303a20617070726f766520746f20746865207a65726f20616464726560008201527f7373000000000000000000000000000000000000000000000000000000000000602082015250565b7f45524332303a207472616e7366657220616d6f756e742065786365656473206260008201527f616c616e63650000000000000000000000000000000000000000000000000000602082015250565b7f45524332303a207472616e7366657220616d6f756e742065786365656473206160008201527f6c6c6f77616e6365000000000000000000000000000000000000000000000000602082015250565b7f45524332303a206275726e2066726f6d20746865207a65726f2061646472657360008201527f7300000000000000000000000000000000000000000000000000000000000000602082015250565b7f45524332303a207472616e736665722066726f6d20746865207a65726f20616460008201527f6472657373000000000000000000000000000000000000000000000000000000602082015250565b7f45524332303a20617070726f76652066726f6d20746865207a65726f2061646460008201527f7265737300000000000000000000000000000000000000000000000000000000602082015250565b7f45524332303a2064656372656173656420616c6c6f77616e63652062656c6f7760008201527f207a65726f000000000000000000000000000000000000000000000000000000602082015250565b7f45524332303a206d696e7420746f20746865207a65726f206164647265737300600082015250565b61209081611c3a565b811461209b57600080fd5b50565b6120a781611c78565b81146120b257600080fd5b5056fea2646970667358221220b7e9c49a33d1e60008ce26ca45900929e540b3876f5efc0b893292db4aeade4564736f6c63430008060033",
  "immutableReferences": {},
  "source": "// SPDX-License-Identifier: Unliscensed\r\npragma solidity ^0.8.6;\r\nimport \"@openzeppelin/contracts/token/ERC20/ERC20.sol\";\r\nimport \"./1_NightManToken.sol\";\r\n\r\ncontract DayManToken is ERC20{\r\n    \r\n    NightManToken nightManToken;\r\n    uint256 public _totalBurned;\r\n    uint256 maxCombinedSupply = 1000000*10**decimals();\r\n    \r\n\r\n    \r\n    constructor(address payable _nightManTokenAddress) ERC20(\"DayManToken\",\"DMTX\"){\r\n        nightManToken = NightManToken(_nightManTokenAddress);\r\n        _totalBurned = maxCombinedSupply / 2;\r\n    }\r\n    \r\n    function totalBurned() public view returns (uint256){\r\n        return(_totalBurned);\r\n    }\r\n\r\n    fallback() external payable {}\r\n    receive() external payable {}\r\n    \r\n    function _transfer(address sender, address recipient, uint256 amount) override(ERC20) internal {\r\n        _burn(sender, amount/100); //burns 1% of transaction\r\n        _totalBurned += amount/100; // and adds that to the total burned\r\n        payable(address(nightManToken)).transfer((address(this).balance * (amount/100))/totalSupply()); //then sends the troll toll to rival contract\r\n        super._transfer(sender, recipient, (99*amount)/100); //finally makes the transfer\r\n    }\r\n    \r\n\r\n    function tokensPurchased(uint256 valueSent) public view returns (uint256){\r\n        return (valueSent * maxCombinedSupply) / (_totalBurned + nightManToken.totalBurned()) * 1000; //returns the amount of tokens a purchase would give. inversly proportional to the amount of tokens burned.\r\n    }\r\n    \r\n    function purchaseTokens() public payable{\r\n        require(msg.value>0); //amount purchased must be greater than zero\r\n        if(tokensPurchased(msg.value) + totalSupply() + nightManToken.totalSupply() > maxCombinedSupply){ // if the value sent in would result in more tokens than allowed\r\n            _mint(msg.sender, maxCombinedSupply - (totalSupply() + nightManToken.totalSupply())); // mints the max amount of tokens possible\r\n           payable(msg.sender).transfer(msg.value - (msg.value * (maxCombinedSupply - (totalSupply() + nightManToken.totalSupply()))) / tokensPurchased(msg.value)); // sends back the unused eth\r\n        }else{\r\n            _mint(msg.sender, tokensPurchased(msg.value)); // mints tokens normally if it would not execeed the max supply\r\n        }\r\n    }\r\n    \r\n    function exchangeTokens(uint256 amount) public {\r\n        require(amount>0);\r\n        require(balanceOf(msg.sender)>amount);\r\n        _burn(msg.sender, amount);\r\n        _totalBurned += amount;\r\n        payable(msg.sender).transfer((address(this).balance * totalSupply()) / amount);\r\n    }\r\n    \r\n}",
  "sourcePath": "C:\\Users\\cody\\The Nightman Cometh\\contracts\\2_DayManToken.sol",
  "compiler": {
    "name": "solc",
    "version": "0.8.6+commit.11564f7e.Emscripten.clang"
  },
  "schemaVersion": "3.4.3",
  "updatedAt": "2021-10-29T04:16:35.711Z",
  "devdoc": {
    "kind": "dev",
    "methods": {
      "allowance(address,address)": {
        "details": "See {IERC20-allowance}."
      },
      "approve(address,uint256)": {
        "details": "See {IERC20-approve}. Requirements: - `spender` cannot be the zero address."
      },
      "balanceOf(address)": {
        "details": "See {IERC20-balanceOf}."
      },
      "decimals()": {
        "details": "Returns the number of decimals used to get its user representation. For example, if `decimals` equals `2`, a balance of `505` tokens should be displayed to a user as `5.05` (`505 / 10 ** 2`). Tokens usually opt for a value of 18, imitating the relationship between Ether and Wei. This is the value {ERC20} uses, unless this function is overridden; NOTE: This information is only used for _display_ purposes: it in no way affects any of the arithmetic of the contract, including {IERC20-balanceOf} and {IERC20-transfer}."
      },
      "decreaseAllowance(address,uint256)": {
        "details": "Atomically decreases the allowance granted to `spender` by the caller. This is an alternative to {approve} that can be used as a mitigation for problems described in {IERC20-approve}. Emits an {Approval} event indicating the updated allowance. Requirements: - `spender` cannot be the zero address. - `spender` must have allowance for the caller of at least `subtractedValue`."
      },
      "increaseAllowance(address,uint256)": {
        "details": "Atomically increases the allowance granted to `spender` by the caller. This is an alternative to {approve} that can be used as a mitigation for problems described in {IERC20-approve}. Emits an {Approval} event indicating the updated allowance. Requirements: - `spender` cannot be the zero address."
      },
      "name()": {
        "details": "Returns the name of the token."
      },
      "symbol()": {
        "details": "Returns the symbol of the token, usually a shorter version of the name."
      },
      "totalSupply()": {
        "details": "See {IERC20-totalSupply}."
      },
      "transfer(address,uint256)": {
        "details": "See {IERC20-transfer}. Requirements: - `recipient` cannot be the zero address. - the caller must have a balance of at least `amount`."
      },
      "transferFrom(address,address,uint256)": {
        "details": "See {IERC20-transferFrom}. Emits an {Approval} event indicating the updated allowance. This is not required by the EIP. See the note at the beginning of {ERC20}. Requirements: - `sender` and `recipient` cannot be the zero address. - `sender` must have a balance of at least `amount`. - the caller must have allowance for ``sender``'s tokens of at least `amount`."
      }
    },
    "version": 1
  },
  "userdoc": {
    "kind": "user",
    "methods": {},
    "version": 1
  }
}